{
  "contractName": "Ownable",
  "abi": [
    {
      "inputs": [],
      "name": "owned",
      "outputs": [],
      "stateMutability": "nonpayable",
      "type": "function"
    }
  ],
  "bytecode": "0x6080604052348015600f57600080fd5b5060ad8061001e6000396000f3fe6080604052348015600f57600080fd5b506004361060285760003560e01c8063df32754b14602d575b600080fd5b60336035565b005b336000806101000a81548173ffffffffffffffffffffffffffffffffffffffff021916908373ffffffffffffffffffffffffffffffffffffffff16021790555056fea2646970667358221220614b4b4aced59bbafcfcec643d5b7ff59f71d04e5a225677ac934809b25d33e364736f6c63430007050033",
  "immutableReferences": {},
  "source": "// SPDX-License-Identifier: MIT\r\n\r\npragma solidity >=0.4.22 <0.9.0;\r\n\r\nimport \"./OpenZeppelin/IERC20.sol\";\r\nimport \"./math/SafeMath.sol\";\r\n\r\ncontract Ownable {\r\n    function owned() public {\r\n        owner = msg.sender;\r\n    }\r\n\r\n    address owner;\r\n    modifier onlyOwner {\r\n        require(msg.sender == owner, \"Only owner can call this function.\");\r\n        _;\r\n    }\r\n}\r\n\r\ncontract WSBCoin is IERC20 {\r\n    using SafeMath for uint256;\r\n\r\n    mapping(address => uint256) private _balances;\r\n    mapping(address => mapping(address => uint256)) private _allowances;\r\n    uint256 private _totalSupply;\r\n    string private _name;\r\n    string private _symbol;\r\n    uint8 private _decimals;\r\n    bool private initialized;\r\n\r\n    /*constructor (uint256 initialSupply_, string memory name_, string memory symbol_) {\r\n        _mint(msg.sender, initialSupply_);\r\n        _name = name_;//for display only\r\n        _symbol = symbol_;//for display only\r\n        _decimals = 8;//for display only\r\n    }*/\r\n\r\n    //instead of constructor for upgradeability\r\n    function initialize(\r\n        uint256 initialSupply_,\r\n        string memory name_,\r\n        string memory symbol_\r\n    ) public {\r\n        require(!initialized, \"Contract instance has already been initialized\"); //allow initializing only once\r\n        initialized = true;\r\n        _name = name_; //for display only\r\n        _symbol = symbol_; //for display only\r\n        _decimals = 8; //for display only\r\n        _mint(msg.sender, initialSupply_); //use mint method instead initializing the supply manually\r\n    }\r\n\r\n    function name() public virtual view returns (string memory) {\r\n        return _name;\r\n    }\r\n\r\n    function symbol() public virtual view returns (string memory) {\r\n        return _symbol;\r\n    }\r\n\r\n    function decimals() public virtual view returns (uint8) {\r\n        return _decimals;\r\n    }\r\n\r\n    function totalSupply() public virtual override view returns (uint256) {\r\n        return _totalSupply;\r\n    }\r\n\r\n    function balanceOf(address account)\r\n        public\r\n        virtual\r\n        override\r\n        view\r\n        returns (uint256)\r\n    {\r\n        return _balances[account];\r\n    }\r\n\r\n    function transfer(address recipient, uint256 amount)\r\n        public\r\n        virtual\r\n        override\r\n        returns (bool)\r\n    {\r\n        _transfer(msg.sender, recipient, amount);\r\n        return true;\r\n    }\r\n\r\n    function allowance(address owner, address spender)\r\n        public\r\n        virtual\r\n        override\r\n        view\r\n        returns (uint256)\r\n    {\r\n        return _allowances[owner][spender];\r\n    }\r\n\r\n    function approve(address spender, uint256 amount)\r\n        public\r\n        virtual\r\n        override\r\n        returns (bool)\r\n    {\r\n        require(\r\n            msg.sender != address(0),\r\n            \"WSB: cant approve from the zero address\"\r\n        );\r\n        require(spender != address(0), \"WSB: cant approve to the zero address\");\r\n\r\n        _allowances[msg.sender][spender] = amount;\r\n        emit Approval(msg.sender, spender, amount);\r\n        return true;\r\n    }\r\n\r\n    function transferFrom(\r\n        address sender,\r\n        address recipient,\r\n        uint256 amount\r\n    ) public virtual override returns (bool) {\r\n        _transfer(sender, recipient, amount);\r\n\r\n        require(\r\n            _allowances[sender][msg.sender] >= amount,\r\n            \"WSB: transfer amount exceeds allowance\"\r\n        );\r\n        _allowances[sender][msg.sender] = _allowances[sender][msg.sender].sub(\r\n            amount,\r\n            \"WSB: transfer amount exceeds allowance\"\r\n        );\r\n        emit Approval(sender, msg.sender, amount);\r\n        return true;\r\n    }\r\n\r\n    function _transfer(\r\n        address sender,\r\n        address recipient,\r\n        uint256 amount\r\n    ) internal virtual {\r\n        require(\r\n            sender != address(0),\r\n            \"WSB: cant transfer from the zero address\"\r\n        );\r\n        require(\r\n            recipient != address(0),\r\n            \"WSB: cant transfer to the zero address\"\r\n        );\r\n\r\n        _balances[sender] = _balances[sender].sub(\r\n            amount,\r\n            \"WSB20: transfer amount exceeds balance\"\r\n        );\r\n        _balances[recipient] = _balances[recipient].add(amount);\r\n        emit Transfer(sender, recipient, amount);\r\n    }\r\n\r\n    function _mint(address account, uint256 amount) internal virtual {\r\n        require(account != address(0), \"WSB: cant mint on zero address\");\r\n\r\n        _totalSupply = _totalSupply.add(amount);\r\n        _balances[account] = _balances[account].add(amount);\r\n        emit Transfer(address(0), account, amount);\r\n    }\r\n\r\n    function _burn(address account, uint256 amount) internal virtual {\r\n        require(account != address(0), \"WSB: cant burn on zero adress\");\r\n\r\n        _balances[account] = _balances[account].sub(\r\n            amount,\r\n            \"WSB: burn amount exceeds balance\"\r\n        );\r\n        _totalSupply = _totalSupply.sub(amount);\r\n        emit Transfer(account, address(0), amount);\r\n    }\r\n}\r\n",
  "sourcePath": "C:\\Users\\albix\\Desktop\\guery\\WSB-Coin\\WSB-Truffle\\contracts\\WSBCoin.sol",
  "compiler": {
    "name": "solc",
    "version": "0.7.5+commit.eb77ed08.Emscripten.clang"
  },
  "schemaVersion": "3.3.3",
  "updatedAt": "2021-02-04T12:30:06.723Z",
  "devdoc": {
    "kind": "dev",
    "methods": {},
    "version": 1
  },
  "userdoc": {
    "kind": "user",
    "methods": {},
    "version": 1
  }
}